{
  "contractName": "TodoList",
  "abi": [
    {
      "constant": true,
      "inputs": [
        {
          "name": "",
          "type": "uint256"
        }
      ],
      "name": "tasks",
      "outputs": [
        {
          "name": "id",
          "type": "uint256"
        },
        {
          "name": "content",
          "type": "string"
        },
        {
          "name": "completed",
          "type": "bool"
        }
      ],
      "payable": false,
      "stateMutability": "view",
      "type": "function",
      "signature": "0x8d977672"
    },
    {
      "constant": true,
      "inputs": [],
      "name": "taskCount",
      "outputs": [
        {
          "name": "",
          "type": "uint256"
        }
      ],
      "payable": false,
      "stateMutability": "view",
      "type": "function",
      "signature": "0xb6cb58a5"
    },
    {
      "constant": true,
      "inputs": [],
      "name": "testName",
      "outputs": [
        {
          "name": "",
          "type": "uint256"
        }
      ],
      "payable": false,
      "stateMutability": "view",
      "type": "function",
      "signature": "0xcc8668de"
    },
    {
      "inputs": [],
      "payable": false,
      "stateMutability": "nonpayable",
      "type": "constructor",
      "signature": "constructor"
    },
    {
      "anonymous": false,
      "inputs": [
        {
          "indexed": false,
          "name": "id",
          "type": "uint256"
        },
        {
          "indexed": false,
          "name": "content",
          "type": "string"
        },
        {
          "indexed": false,
          "name": "completed",
          "type": "bool"
        }
      ],
      "name": "TaskCreated",
      "type": "event",
      "signature": "0x05d0fb833127fc08168556d0e7ca9554fc3f6bc843b3b7d2bf1c35aea6bab660"
    },
    {
      "anonymous": false,
      "inputs": [
        {
          "indexed": false,
          "name": "id",
          "type": "uint256"
        },
        {
          "indexed": false,
          "name": "completed",
          "type": "bool"
        }
      ],
      "name": "TaskCompleted",
      "type": "event",
      "signature": "0xe21fa966ca5cd02748c0752352d18c48165e61cb55b4c29cccf924b5a95fcff1"
    },
    {
      "constant": false,
      "inputs": [
        {
          "name": "_content",
          "type": "string"
        }
      ],
      "name": "createTask",
      "outputs": [],
      "payable": false,
      "stateMutability": "nonpayable",
      "type": "function",
      "signature": "0x111002aa"
    },
    {
      "constant": false,
      "inputs": [
        {
          "name": "_id",
          "type": "uint256"
        }
      ],
      "name": "toggleCompleted",
      "outputs": [],
      "payable": false,
      "stateMutability": "nonpayable",
      "type": "function",
      "signature": "0x455f5024"
    }
  ],
  "bytecode": "0x608060405260008055611af360015534801561001a57600080fd5b5060408051808201909152600781527f57656c636f6d6500000000000000000000000000000000000000000000000000602082015261006190640100000000610066810204565b610226565b6000805460019081018083556040805160608101825282815260208082018781528284018790529386526002815291909420845181559151805192936100b49390850192919091019061018b565b5060408201518160020160006101000a81548160ff0219169083151502179055509050507f05d0fb833127fc08168556d0e7ca9554fc3f6bc843b3b7d2bf1c35aea6bab660600054826000604051808481526020018060200183151515158152602001828103825284818151815260200191508051906020019080838360005b8381101561014c578181015183820152602001610134565b50505050905090810190601f1680156101795780820380516001836020036101000a031916815260200191505b5094505050505060405180910390a150565b828054600181600116156101000203166002900490600052602060002090601f016020900481019282601f106101cc57805160ff19168380011785556101f9565b828001600101855582156101f9579182015b828111156101f95782518255916020019190600101906101de565b50610205929150610209565b5090565b61022391905b80821115610205576000815560010161020f565b90565b610669806102356000396000f3fe60806040526004361061006c5763ffffffff7c0100000000000000000000000000000000000000000000000000000000600035041663111002aa8114610071578063455f5024146101265780638d97767214610150578063b6cb58a514610204578063cc8668de1461022b575b600080fd5b34801561007d57600080fd5b506101246004803603602081101561009457600080fd5b8101906020810181356401000000008111156100af57600080fd5b8201836020820111156100c157600080fd5b803590602001918460018302840111640100000000831117156100e357600080fd5b91908080601f016020809104026020016040519081016040528093929190818152602001838380828437600092019190915250929550610240945050505050565b005b34801561013257600080fd5b506101246004803603602081101561014957600080fd5b5035610365565b34801561015c57600080fd5b5061017a6004803603602081101561017357600080fd5b50356104c4565b604051808481526020018060200183151515158152602001828103825284818151815260200191508051906020019080838360005b838110156101c75781810151838201526020016101af565b50505050905090810190601f1680156101f45780820380516001836020036101000a031916815260200191505b5094505050505060405180910390f35b34801561021057600080fd5b50610219610572565b60408051918252519081900360200190f35b34801561023757600080fd5b50610219610578565b60008054600190810180835560408051606081018252828152602080820187815282840187905293865260028152919094208451815591518051929361028e9390850192919091019061057e565b5060408201518160020160006101000a81548160ff0219169083151502179055509050507f05d0fb833127fc08168556d0e7ca9554fc3f6bc843b3b7d2bf1c35aea6bab660600054826000604051808481526020018060200183151515158152602001828103825284818151815260200191508051906020019080838360005b8381101561032657818101518382015260200161030e565b50505050905090810190601f1680156103535780820380516001836020036101000a031916815260200191505b5094505050505060405180910390a150565b61036d6105fc565b6000828152600260208181526040928390208351606081018552815481526001808301805487519281161561010002600019011695909504601f81018590048502820185019096528581529094919385840193919290918301828280156104155780601f106103ea57610100808354040283529160200191610415565b820191906000526020600020905b8154815290600101906020018083116103f857829003601f168201915b505050918352505060029182015460ff16151560209182015260408084018051159052600086815292825290912082518155828201518051939450849391926104669260018501929091019061057e565b50604091820151600291909101805460ff1916911515919091179055818101518151848152901515602082015281517fe21fa966ca5cd02748c0752352d18c48165e61cb55b4c29cccf924b5a95fcff1929181900390910190a15050565b60026020818152600092835260409283902080546001808301805487519281161561010002600019011695909504601f810185900485028201850190965285815290949193909290919083018282801561055f5780601f106105345761010080835404028352916020019161055f565b820191906000526020600020905b81548152906001019060200180831161054257829003601f168201915b5050506002909301549192505060ff1683565b60005481565b60015481565b828054600181600116156101000203166002900490600052602060002090601f016020900481019282601f106105bf57805160ff19168380011785556105ec565b828001600101855582156105ec579182015b828111156105ec5782518255916020019190600101906105d1565b506105f8929150610620565b5090565b60606040519081016040528060008152602001606081526020016000151581525090565b61063a91905b808211156105f85760008155600101610626565b9056fea165627a7a7230582098c92f8a2324ef9119215b242673187b29d83f33e6e915f6bf35dbcd43bdef900029",
  "source": "pragma solidity >=0.4.21 <0.6.0;\n\ncontract TodoList {\n\tuint public taskCount = 0;\n\tuint public testName = 6899;\n\n\tstruct Task {\n\t\tuint id;\n\t\tstring content;\n\t\tbool completed;\n\t}\n\n\tmapping(uint => Task) public tasks;\n\n\tevent TaskCreated(\n\t\tuint id,\n\t\tstring content,\n\t\tbool completed\n\t);\n\n\tevent TaskCompleted(\n\t\tuint id,\n\t\tbool completed\n\t);\n\n\tconstructor() public {\n\t\tcreateTask(\"Welcome\");\n\t}\n\n\tfunction createTask(string memory _content) public {\n\t\ttaskCount++;\n\t\ttasks[taskCount] = Task(taskCount, _content, false);\n\t\temit TaskCreated(taskCount, _content, false);\n\t}\n\n\tfunction toggleCompleted(uint _id) public {\n\t\tTask memory _task = tasks[_id];\n\t\t_task.completed = !_task.completed;\n\t\ttasks[_id] = _task;\n\t\temit TaskCompleted(_id, _task.completed);\n\t}\n\n}",
  "sourcePath": "C:/Users/mohin/OneDrive/Desktop/projects/projectn/contracts/todolist.sol",
  "compiler": {
    "name": "solc",
    "version": "0.5.0+commit.1d4f565a.Emscripten.clang"
  },
  "schemaVersion": "3.0.1",
  "updatedAt": "2020-12-20T11:04:25.642Z",
  "devdoc": {
    "methods": {}
  },
  "userdoc": {
    "methods": {}
  }
}